{
  "contractName": "CryptoConchasRinkeby",
  "abi": [
    {
      "inputs": [],
      "stateMutability": "nonpayable",
      "type": "constructor"
    },
    {
      "anonymous": false,
      "inputs": [
        {
          "indexed": true,
          "internalType": "address",
          "name": "owner",
          "type": "address"
        },
        {
          "indexed": true,
          "internalType": "address",
          "name": "approved",
          "type": "address"
        },
        {
          "indexed": true,
          "internalType": "uint256",
          "name": "tokenId",
          "type": "uint256"
        }
      ],
      "name": "Approval",
      "type": "event"
    },
    {
      "anonymous": false,
      "inputs": [
        {
          "indexed": true,
          "internalType": "address",
          "name": "owner",
          "type": "address"
        },
        {
          "indexed": true,
          "internalType": "address",
          "name": "operator",
          "type": "address"
        },
        {
          "indexed": false,
          "internalType": "bool",
          "name": "approved",
          "type": "bool"
        }
      ],
      "name": "ApprovalForAll",
      "type": "event"
    },
    {
      "anonymous": false,
      "inputs": [
        {
          "indexed": true,
          "internalType": "address",
          "name": "previousOwner",
          "type": "address"
        },
        {
          "indexed": true,
          "internalType": "address",
          "name": "newOwner",
          "type": "address"
        }
      ],
      "name": "OwnershipTransferred",
      "type": "event"
    },
    {
      "anonymous": false,
      "inputs": [
        {
          "indexed": true,
          "internalType": "address",
          "name": "from",
          "type": "address"
        },
        {
          "indexed": true,
          "internalType": "address",
          "name": "to",
          "type": "address"
        },
        {
          "indexed": true,
          "internalType": "uint256",
          "name": "tokenId",
          "type": "uint256"
        }
      ],
      "name": "Transfer",
      "type": "event"
    },
    {
      "inputs": [],
      "name": "MAX_MINT_SUPPLY",
      "outputs": [
        {
          "internalType": "uint256",
          "name": "",
          "type": "uint256"
        }
      ],
      "stateMutability": "view",
      "type": "function",
      "constant": true
    },
    {
      "inputs": [],
      "name": "MINT_LIMIT",
      "outputs": [
        {
          "internalType": "uint256",
          "name": "",
          "type": "uint256"
        }
      ],
      "stateMutability": "view",
      "type": "function",
      "constant": true
    },
    {
      "inputs": [],
      "name": "_price",
      "outputs": [
        {
          "internalType": "uint256",
          "name": "",
          "type": "uint256"
        }
      ],
      "stateMutability": "view",
      "type": "function",
      "constant": true
    },
    {
      "inputs": [],
      "name": "addressOne",
      "outputs": [
        {
          "internalType": "address",
          "name": "",
          "type": "address"
        }
      ],
      "stateMutability": "view",
      "type": "function",
      "constant": true
    },
    {
      "inputs": [
        {
          "internalType": "address",
          "name": "to",
          "type": "address"
        },
        {
          "internalType": "uint256",
          "name": "tokenId",
          "type": "uint256"
        }
      ],
      "name": "approve",
      "outputs": [],
      "stateMutability": "nonpayable",
      "type": "function"
    },
    {
      "inputs": [
        {
          "internalType": "address",
          "name": "owner",
          "type": "address"
        }
      ],
      "name": "balanceOf",
      "outputs": [
        {
          "internalType": "uint256",
          "name": "",
          "type": "uint256"
        }
      ],
      "stateMutability": "view",
      "type": "function",
      "constant": true
    },
    {
      "inputs": [
        {
          "internalType": "uint256",
          "name": "tokenId",
          "type": "uint256"
        }
      ],
      "name": "getApproved",
      "outputs": [
        {
          "internalType": "address",
          "name": "",
          "type": "address"
        }
      ],
      "stateMutability": "view",
      "type": "function",
      "constant": true
    },
    {
      "inputs": [
        {
          "internalType": "address",
          "name": "owner",
          "type": "address"
        },
        {
          "internalType": "address",
          "name": "operator",
          "type": "address"
        }
      ],
      "name": "isApprovedForAll",
      "outputs": [
        {
          "internalType": "bool",
          "name": "",
          "type": "bool"
        }
      ],
      "stateMutability": "view",
      "type": "function",
      "constant": true
    },
    {
      "inputs": [],
      "name": "isPaused",
      "outputs": [
        {
          "internalType": "bool",
          "name": "",
          "type": "bool"
        }
      ],
      "stateMutability": "view",
      "type": "function",
      "constant": true
    },
    {
      "inputs": [],
      "name": "name",
      "outputs": [
        {
          "internalType": "string",
          "name": "",
          "type": "string"
        }
      ],
      "stateMutability": "view",
      "type": "function",
      "constant": true
    },
    {
      "inputs": [],
      "name": "owner",
      "outputs": [
        {
          "internalType": "address",
          "name": "",
          "type": "address"
        }
      ],
      "stateMutability": "view",
      "type": "function",
      "constant": true
    },
    {
      "inputs": [
        {
          "internalType": "uint256",
          "name": "tokenId",
          "type": "uint256"
        }
      ],
      "name": "ownerOf",
      "outputs": [
        {
          "internalType": "address",
          "name": "",
          "type": "address"
        }
      ],
      "stateMutability": "view",
      "type": "function",
      "constant": true
    },
    {
      "inputs": [],
      "name": "renounceOwnership",
      "outputs": [],
      "stateMutability": "nonpayable",
      "type": "function"
    },
    {
      "inputs": [
        {
          "internalType": "address",
          "name": "from",
          "type": "address"
        },
        {
          "internalType": "address",
          "name": "to",
          "type": "address"
        },
        {
          "internalType": "uint256",
          "name": "tokenId",
          "type": "uint256"
        }
      ],
      "name": "safeTransferFrom",
      "outputs": [],
      "stateMutability": "nonpayable",
      "type": "function"
    },
    {
      "inputs": [
        {
          "internalType": "address",
          "name": "from",
          "type": "address"
        },
        {
          "internalType": "address",
          "name": "to",
          "type": "address"
        },
        {
          "internalType": "uint256",
          "name": "tokenId",
          "type": "uint256"
        },
        {
          "internalType": "bytes",
          "name": "_data",
          "type": "bytes"
        }
      ],
      "name": "safeTransferFrom",
      "outputs": [],
      "stateMutability": "nonpayable",
      "type": "function"
    },
    {
      "inputs": [
        {
          "internalType": "address",
          "name": "operator",
          "type": "address"
        },
        {
          "internalType": "bool",
          "name": "approved",
          "type": "bool"
        }
      ],
      "name": "setApprovalForAll",
      "outputs": [],
      "stateMutability": "nonpayable",
      "type": "function"
    },
    {
      "inputs": [
        {
          "internalType": "bytes4",
          "name": "interfaceId",
          "type": "bytes4"
        }
      ],
      "name": "supportsInterface",
      "outputs": [
        {
          "internalType": "bool",
          "name": "",
          "type": "bool"
        }
      ],
      "stateMutability": "view",
      "type": "function",
      "constant": true
    },
    {
      "inputs": [],
      "name": "symbol",
      "outputs": [
        {
          "internalType": "string",
          "name": "",
          "type": "string"
        }
      ],
      "stateMutability": "view",
      "type": "function",
      "constant": true
    },
    {
      "inputs": [
        {
          "internalType": "uint256",
          "name": "index",
          "type": "uint256"
        }
      ],
      "name": "tokenByIndex",
      "outputs": [
        {
          "internalType": "uint256",
          "name": "",
          "type": "uint256"
        }
      ],
      "stateMutability": "view",
      "type": "function",
      "constant": true
    },
    {
      "inputs": [
        {
          "internalType": "address",
          "name": "owner",
          "type": "address"
        },
        {
          "internalType": "uint256",
          "name": "index",
          "type": "uint256"
        }
      ],
      "name": "tokenOfOwnerByIndex",
      "outputs": [
        {
          "internalType": "uint256",
          "name": "",
          "type": "uint256"
        }
      ],
      "stateMutability": "view",
      "type": "function",
      "constant": true
    },
    {
      "inputs": [
        {
          "internalType": "uint256",
          "name": "tokenId",
          "type": "uint256"
        }
      ],
      "name": "tokenURI",
      "outputs": [
        {
          "internalType": "string",
          "name": "",
          "type": "string"
        }
      ],
      "stateMutability": "view",
      "type": "function",
      "constant": true
    },
    {
      "inputs": [],
      "name": "totalSupply",
      "outputs": [
        {
          "internalType": "uint256",
          "name": "",
          "type": "uint256"
        }
      ],
      "stateMutability": "view",
      "type": "function",
      "constant": true
    },
    {
      "inputs": [
        {
          "internalType": "address",
          "name": "from",
          "type": "address"
        },
        {
          "internalType": "address",
          "name": "to",
          "type": "address"
        },
        {
          "internalType": "uint256",
          "name": "tokenId",
          "type": "uint256"
        }
      ],
      "name": "transferFrom",
      "outputs": [],
      "stateMutability": "nonpayable",
      "type": "function"
    },
    {
      "inputs": [
        {
          "internalType": "address",
          "name": "newOwner",
          "type": "address"
        }
      ],
      "name": "transferOwnership",
      "outputs": [],
      "stateMutability": "nonpayable",
      "type": "function"
    },
    {
      "inputs": [
        {
          "internalType": "address",
          "name": "_to",
          "type": "address"
        }
      ],
      "name": "mint",
      "outputs": [],
      "stateMutability": "payable",
      "type": "function",
      "payable": true
    },
    {
      "inputs": [],
      "name": "getIsPaused",
      "outputs": [
        {
          "internalType": "bool",
          "name": "",
          "type": "bool"
        }
      ],
      "stateMutability": "view",
      "type": "function",
      "constant": true
    },
    {
      "inputs": [],
      "name": "getPrice",
      "outputs": [
        {
          "internalType": "uint256",
          "name": "",
          "type": "uint256"
        }
      ],
      "stateMutability": "view",
      "type": "function",
      "constant": true
    },
    {
      "inputs": [],
      "name": "getMintLimit",
      "outputs": [
        {
          "internalType": "uint256",
          "name": "",
          "type": "uint256"
        }
      ],
      "stateMutability": "view",
      "type": "function",
      "constant": true
    },
    {
      "inputs": [
        {
          "internalType": "uint256",
          "name": "_MINT_LIMIT",
          "type": "uint256"
        }
      ],
      "name": "setMintLimit",
      "outputs": [],
      "stateMutability": "nonpayable",
      "type": "function"
    },
    {
      "inputs": [
        {
          "internalType": "bool",
          "name": "_paused",
          "type": "bool"
        }
      ],
      "name": "setIsPaused",
      "outputs": [],
      "stateMutability": "nonpayable",
      "type": "function"
    },
    {
      "inputs": [
        {
          "internalType": "uint256",
          "name": "price",
          "type": "uint256"
        }
      ],
      "name": "setPrice",
      "outputs": [],
      "stateMutability": "nonpayable",
      "type": "function"
    },
    {
      "inputs": [
        {
          "internalType": "address",
          "name": "_to",
          "type": "address"
        },
        {
          "internalType": "uint256",
          "name": "_count",
          "type": "uint256"
        }
      ],
      "name": "initialMintBatch",
      "outputs": [],
      "stateMutability": "payable",
      "type": "function",
      "payable": true
    },
    {
      "inputs": [
        {
          "internalType": "address",
          "name": "_to",
          "type": "address"
        },
        {
          "internalType": "uint256",
          "name": "_count",
          "type": "uint256"
        }
      ],
      "name": "mintBatch",
      "outputs": [],
      "stateMutability": "payable",
      "type": "function",
      "payable": true
    },
    {
      "inputs": [],
      "name": "withdrawAll",
      "outputs": [],
      "stateMutability": "payable",
      "type": "function",
      "payable": true
    }
  ],
  "bytecode": "0x60806040526000600c556064600d556000600e60006101000a81548160ff0219169083151502179055503480156200003657600080fd5b506040518060400160405280601481526020017f43727970746f436f6e6368617352696e6b6562790000000000000000000000008152506040518060400160405280600381526020017f43435200000000000000000000000000000000000000000000000000000000008152508160009080519060200190620000bb929190620001cb565b508060019080519060200190620000d4929190620001cb565b505050620000f7620000eb620000fd60201b60201c565b6200010560201b60201c565b620002e0565b600033905090565b6000600a60009054906101000a900473ffffffffffffffffffffffffffffffffffffffff16905081600a60006101000a81548173ffffffffffffffffffffffffffffffffffffffff021916908373ffffffffffffffffffffffffffffffffffffffff1602179055508173ffffffffffffffffffffffffffffffffffffffff168173ffffffffffffffffffffffffffffffffffffffff167f8be0079c531659141344cd1fd0a4f28419497f9722a3daafe3b4186f6b6457e060405160405180910390a35050565b828054620001d990620002aa565b90600052602060002090601f016020900481019282620001fd576000855562000249565b82601f106200021857805160ff191683800117855562000249565b8280016001018555821562000249579182015b82811115620002485782518255916020019190600101906200022b565b5b5090506200025891906200025c565b5090565b5b80821115620002775760008160009055506001016200025d565b5090565b7f4e487b7100000000000000000000000000000000000000000000000000000000600052602260045260246000fd5b60006002820490506001821680620002c357607f821691505b60208210811415620002da57620002d96200027b565b5b50919050565b61444980620002f06000396000f3fe6080604052600436106101f95760003560e01c806370a082311161010d578063a22cb465116100a0578063c87b56dd1161006f578063c87b56dd146106d7578063e985e9c514610714578063eeb6658e14610751578063f2a6f2151461077c578063f2fde38b146107a7576101f9565b8063a22cb4651461062f578063a329e1db14610658578063b187bd2614610683578063b88d4fde146106ae576101f9565b806391b7f5ed116100dc57806391b7f5ed1461058757806395d89b41146105b057806398d5fdca146105db5780639e6a1d7d14610606576101f9565b806370a08231146104fe578063715018a61461053b578063853828b6146105525780638da5cb5b1461055c576101f9565b806323b872dd1161019057806342842e0e1161015f57806342842e0e146104145780634f6ccce71461043d57806356bda4a21461047a5780636352211e146104a55780636a627842146104e2576101f9565b806323b872dd14610369578063240976bf14610392578063248b71fc146103bb5780632f745c59146103d7576101f9565b8063095ea7b3116101cc578063095ea7b3146102ce578063112f0fd9146102f757806318160ddd14610313578063235b6ea11461033e576101f9565b806301ffc9a7146101fe578063027752401461023b57806306fdde0314610266578063081812fc14610291575b600080fd5b34801561020a57600080fd5b5061022560048036038101906102209190612ddb565b6107d0565b6040516102329190612e23565b60405180910390f35b34801561024757600080fd5b5061025061084a565b60405161025d9190612e57565b60405180910390f35b34801561027257600080fd5b5061027b610850565b6040516102889190612f0b565b60405180910390f35b34801561029d57600080fd5b506102b860048036038101906102b39190612f59565b6108e2565b6040516102c59190612fc7565b60405180910390f35b3480156102da57600080fd5b506102f560048036038101906102f0919061300e565b610967565b005b610311600480360381019061030c919061300e565b610a7f565b005b34801561031f57600080fd5b50610328610c04565b6040516103359190612e57565b60405180910390f35b34801561034a57600080fd5b50610353610c11565b6040516103609190612e57565b60405180910390f35b34801561037557600080fd5b50610390600480360381019061038b919061304e565b610c17565b005b34801561039e57600080fd5b506103b960048036038101906103b491906130cd565b610c77565b005b6103d560048036038101906103d0919061300e565b610d85565b005b3480156103e357600080fd5b506103fe60048036038101906103f9919061300e565b610f49565b60405161040b9190612e57565b60405180910390f35b34801561042057600080fd5b5061043b6004803603810190610436919061304e565b610fee565b005b34801561044957600080fd5b50610464600480360381019061045f9190612f59565b61100e565b6040516104719190612e57565b60405180910390f35b34801561048657600080fd5b5061048f61107f565b60405161049c9190612e57565b60405180910390f35b3480156104b157600080fd5b506104cc60048036038101906104c79190612f59565b6110fe565b6040516104d99190612fc7565b60405180910390f35b6104fc60048036038101906104f791906130fa565b6111b0565b005b34801561050a57600080fd5b50610525600480360381019061052091906130fa565b611365565b6040516105329190612e57565b60405180910390f35b34801561054757600080fd5b5061055061141d565b005b61055a6114a5565b005b34801561056857600080fd5b506105716115ea565b60405161057e9190612fc7565b60405180910390f35b34801561059357600080fd5b506105ae60048036038101906105a99190612f59565b611614565b005b3480156105bc57600080fd5b506105c561170f565b6040516105d29190612f0b565b60405180910390f35b3480156105e757600080fd5b506105f06117a1565b6040516105fd9190612e57565b60405180910390f35b34801561061257600080fd5b5061062d60048036038101906106289190612f59565b611820565b005b34801561063b57600080fd5b5061065660048036038101906106519190613127565b61191b565b005b34801561066457600080fd5b5061066d611931565b60405161067a9190612e57565b60405180910390f35b34801561068f57600080fd5b50610698611937565b6040516106a59190612e23565b60405180910390f35b3480156106ba57600080fd5b506106d560048036038101906106d0919061329c565b61194a565b005b3480156106e357600080fd5b506106fe60048036038101906106f99190612f59565b6119ac565b60405161070b9190612f0b565b60405180910390f35b34801561072057600080fd5b5061073b6004803603810190610736919061331f565b611a53565b6040516107489190612e23565b60405180910390f35b34801561075d57600080fd5b50610766611ae7565b6040516107739190612fc7565b60405180910390f35b34801561078857600080fd5b50610791611aff565b60405161079e9190612e23565b60405180910390f35b3480156107b357600080fd5b506107ce60048036038101906107c991906130fa565b611b16565b005b60007f780e9d63000000000000000000000000000000000000000000000000000000007bffffffffffffffffffffffffffffffffffffffffffffffffffffffff1916827bffffffffffffffffffffffffffffffffffffffffffffffffffffffff19161480610843575061084282611c0e565b5b9050919050565b600d5481565b60606000805461085f9061338e565b80601f016020809104026020016040519081016040528092919081815260200182805461088b9061338e565b80156108d85780601f106108ad576101008083540402835291602001916108d8565b820191906000526020600020905b8154815290600101906020018083116108bb57829003601f168201915b5050505050905090565b60006108ed82611cf0565b61092c576040517f08c379a000000000000000000000000000000000000000000000000000000000815260040161092390613432565b60405180910390fd5b6004600083815260200190815260200160002060009054906101000a900473ffffffffffffffffffffffffffffffffffffffff169050919050565b6000610972826110fe565b90508073ffffffffffffffffffffffffffffffffffffffff168373ffffffffffffffffffffffffffffffffffffffff1614156109e3576040517f08c379a00000000000000000000000000000000000000000000000000000000081526004016109da906134c4565b60405180910390fd5b8073ffffffffffffffffffffffffffffffffffffffff16610a02611d5c565b73ffffffffffffffffffffffffffffffffffffffff161480610a315750610a3081610a2b611d5c565b611a53565b5b610a70576040517f08c379a0000000000000000000000000000000000000000000000000000000008152600401610a6790613556565b60405180910390fd5b610a7a8383611d64565b505050565b610a87611d5c565b73ffffffffffffffffffffffffffffffffffffffff16610aa56115ea565b73ffffffffffffffffffffffffffffffffffffffff1614610afb576040517f08c379a0000000000000000000000000000000000000000000000000000000008152600401610af2906135c2565b60405180910390fd5b6000610b05610c04565b90506127108282610b169190613611565b10610b56576040517f08c379a0000000000000000000000000000000000000000000000000000000008152600401610b4d906136b3565b60405180910390fd5b610b5e6115ea565b73ffffffffffffffffffffffffffffffffffffffff163373ffffffffffffffffffffffffffffffffffffffff1614610bcb576040517f08c379a0000000000000000000000000000000000000000000000000000000008152600401610bc29061371f565b60405180910390fd5b60005b82811015610bfe57610beb848284610be69190613611565b611e1d565b8080610bf69061373f565b915050610bce565b50505050565b6000600880549050905090565b600c5481565b610c28610c22611d5c565b82611feb565b610c67576040517f08c379a0000000000000000000000000000000000000000000000000000000008152600401610c5e906137fa565b60405180910390fd5b610c728383836120c9565b505050565b610c7f611d5c565b73ffffffffffffffffffffffffffffffffffffffff16610c9d6115ea565b73ffffffffffffffffffffffffffffffffffffffff1614610cf3576040517f08c379a0000000000000000000000000000000000000000000000000000000008152600401610cea906135c2565b60405180910390fd5b610cfb6115ea565b73ffffffffffffffffffffffffffffffffffffffff163373ffffffffffffffffffffffffffffffffffffffff1614610d68576040517f08c379a0000000000000000000000000000000000000000000000000000000008152600401610d5f9061371f565b60405180910390fd5b80600e60006101000a81548160ff02191690831515021790555050565b6000610d8f610c04565b905060001515610d9d611aff565b151514610ddf576040517f08c379a0000000000000000000000000000000000000000000000000000000008152600401610dd690613866565b60405180910390fd5b60158210610e22576040517f08c379a0000000000000000000000000000000000000000000000000000000008152600401610e19906138d2565b60405180910390fd5b600d548282610e319190613611565b10610e71576040517f08c379a0000000000000000000000000000000000000000000000000000000008152600401610e689061393e565b60405180910390fd5b6127108282610e809190613611565b10610ec0576040517f08c379a0000000000000000000000000000000000000000000000000000000008152600401610eb7906136b3565b60405180910390fd5b81600c54610ece919061395e565b341015610f10576040517f08c379a0000000000000000000000000000000000000000000000000000000008152600401610f0790613a04565b60405180910390fd5b60005b82811015610f4357610f30848284610f2b9190613611565b611e1d565b8080610f3b9061373f565b915050610f13565b50505050565b6000610f5483611365565b8210610f95576040517f08c379a0000000000000000000000000000000000000000000000000000000008152600401610f8c90613a96565b60405180910390fd5b600660008473ffffffffffffffffffffffffffffffffffffffff1673ffffffffffffffffffffffffffffffffffffffff168152602001908152602001600020600083815260200190815260200160002054905092915050565b6110098383836040518060200160405280600081525061194a565b505050565b6000611018610c04565b8210611059576040517f08c379a000000000000000000000000000000000000000000000000000000000815260040161105090613b28565b60405180910390fd5b6008828154811061106d5761106c613b48565b5b90600052602060002001549050919050565b60006110896115ea565b73ffffffffffffffffffffffffffffffffffffffff163373ffffffffffffffffffffffffffffffffffffffff16146110f6576040517f08c379a00000000000000000000000000000000000000000000000000000000081526004016110ed9061371f565b60405180910390fd5b600d54905090565b6000806002600084815260200190815260200160002060009054906101000a900473ffffffffffffffffffffffffffffffffffffffff169050600073ffffffffffffffffffffffffffffffffffffffff168173ffffffffffffffffffffffffffffffffffffffff1614156111a7576040517f08c379a000000000000000000000000000000000000000000000000000000000815260040161119e90613be9565b60405180910390fd5b80915050919050565b60006111ba610c04565b9050600015156111c8611aff565b15151461120a576040517f08c379a000000000000000000000000000000000000000000000000000000000815260040161120190613866565b60405180910390fd5b600d5460018261121a9190613611565b1061125a576040517f08c379a00000000000000000000000000000000000000000000000000000000081526004016112519061393e565b60405180910390fd5b61271060018261126a9190613611565b106112aa576040517f08c379a00000000000000000000000000000000000000000000000000000000081526004016112a1906136b3565b60405180910390fd5b600c543410156112ef576040517f08c379a00000000000000000000000000000000000000000000000000000000081526004016112e690613a04565b60405180910390fd5b611305826001836113009190613611565b611e1d565b7355541b808cd0d89e4bddfabc00a7f53b698f4baf73ffffffffffffffffffffffffffffffffffffffff166108fc349081150290604051600060405180830381858888f1935050505061135757600080fd5b611361600b612325565b5050565b60008073ffffffffffffffffffffffffffffffffffffffff168273ffffffffffffffffffffffffffffffffffffffff1614156113d6576040517f08c379a00000000000000000000000000000000000000000000000000000000081526004016113cd90613c7b565b60405180910390fd5b600360008373ffffffffffffffffffffffffffffffffffffffff1673ffffffffffffffffffffffffffffffffffffffff168152602001908152602001600020549050919050565b611425611d5c565b73ffffffffffffffffffffffffffffffffffffffff166114436115ea565b73ffffffffffffffffffffffffffffffffffffffff1614611499576040517f08c379a0000000000000000000000000000000000000000000000000000000008152600401611490906135c2565b60405180910390fd5b6114a3600061233b565b565b6114ad611d5c565b73ffffffffffffffffffffffffffffffffffffffff166114cb6115ea565b73ffffffffffffffffffffffffffffffffffffffff1614611521576040517f08c379a0000000000000000000000000000000000000000000000000000000008152600401611518906135c2565b60405180910390fd5b6115296115ea565b73ffffffffffffffffffffffffffffffffffffffff163373ffffffffffffffffffffffffffffffffffffffff1614611596576040517f08c379a000000000000000000000000000000000000000000000000000000000815260040161158d9061371f565b60405180910390fd5b7355541b808cd0d89e4bddfabc00a7f53b698f4baf73ffffffffffffffffffffffffffffffffffffffff166108fc479081150290604051600060405180830381858888f193505050506115e857600080fd5b565b6000600a60009054906101000a900473ffffffffffffffffffffffffffffffffffffffff16905090565b61161c611d5c565b73ffffffffffffffffffffffffffffffffffffffff1661163a6115ea565b73ffffffffffffffffffffffffffffffffffffffff1614611690576040517f08c379a0000000000000000000000000000000000000000000000000000000008152600401611687906135c2565b60405180910390fd5b6116986115ea565b73ffffffffffffffffffffffffffffffffffffffff163373ffffffffffffffffffffffffffffffffffffffff1614611705576040517f08c379a00000000000000000000000000000000000000000000000000000000081526004016116fc9061371f565b60405180910390fd5b80600c8190555050565b60606001805461171e9061338e565b80601f016020809104026020016040519081016040528092919081815260200182805461174a9061338e565b80156117975780601f1061176c57610100808354040283529160200191611797565b820191906000526020600020905b81548152906001019060200180831161177a57829003601f168201915b5050505050905090565b60006117ab6115ea565b73ffffffffffffffffffffffffffffffffffffffff163373ffffffffffffffffffffffffffffffffffffffff1614611818576040517f08c379a000000000000000000000000000000000000000000000000000000000815260040161180f9061371f565b60405180910390fd5b600c54905090565b611828611d5c565b73ffffffffffffffffffffffffffffffffffffffff166118466115ea565b73ffffffffffffffffffffffffffffffffffffffff161461189c576040517f08c379a0000000000000000000000000000000000000000000000000000000008152600401611893906135c2565b60405180910390fd5b6118a46115ea565b73ffffffffffffffffffffffffffffffffffffffff163373ffffffffffffffffffffffffffffffffffffffff1614611911576040517f08c379a00000000000000000000000000000000000000000000000000000000081526004016119089061371f565b60405180910390fd5b80600d8190555050565b61192d611926611d5c565b8383612401565b5050565b61271081565b600e60009054906101000a900460ff1681565b61195b611955611d5c565b83611feb565b61199a576040517f08c379a0000000000000000000000000000000000000000000000000000000008152600401611991906137fa565b60405180910390fd5b6119a68484848461256e565b50505050565b60606119b782611cf0565b6119f6576040517f08c379a00000000000000000000000000000000000000000000000000000000081526004016119ed90613d0d565b60405180910390fd5b6000611a006125ca565b90506000815111611a205760405180602001604052806000815250611a4b565b80611a2a846125ea565b604051602001611a3b929190613db5565b6040516020818303038152906040525b915050919050565b6000600560008473ffffffffffffffffffffffffffffffffffffffff1673ffffffffffffffffffffffffffffffffffffffff16815260200190815260200160002060008373ffffffffffffffffffffffffffffffffffffffff1673ffffffffffffffffffffffffffffffffffffffff16815260200190815260200160002060009054906101000a900460ff16905092915050565b7355541b808cd0d89e4bddfabc00a7f53b698f4baf81565b6000600e60009054906101000a900460ff16905090565b611b1e611d5c565b73ffffffffffffffffffffffffffffffffffffffff16611b3c6115ea565b73ffffffffffffffffffffffffffffffffffffffff1614611b92576040517f08c379a0000000000000000000000000000000000000000000000000000000008152600401611b89906135c2565b60405180910390fd5b600073ffffffffffffffffffffffffffffffffffffffff168173ffffffffffffffffffffffffffffffffffffffff161415611c02576040517f08c379a0000000000000000000000000000000000000000000000000000000008152600401611bf990613e56565b60405180910390fd5b611c0b8161233b565b50565b60007f80ac58cd000000000000000000000000000000000000000000000000000000007bffffffffffffffffffffffffffffffffffffffffffffffffffffffff1916827bffffffffffffffffffffffffffffffffffffffffffffffffffffffff19161480611cd957507f5b5e139f000000000000000000000000000000000000000000000000000000007bffffffffffffffffffffffffffffffffffffffffffffffffffffffff1916827bffffffffffffffffffffffffffffffffffffffffffffffffffffffff1916145b80611ce95750611ce88261274b565b5b9050919050565b60008073ffffffffffffffffffffffffffffffffffffffff166002600084815260200190815260200160002060009054906101000a900473ffffffffffffffffffffffffffffffffffffffff1673ffffffffffffffffffffffffffffffffffffffff1614159050919050565b600033905090565b816004600083815260200190815260200160002060006101000a81548173ffffffffffffffffffffffffffffffffffffffff021916908373ffffffffffffffffffffffffffffffffffffffff160217905550808273ffffffffffffffffffffffffffffffffffffffff16611dd7836110fe565b73ffffffffffffffffffffffffffffffffffffffff167f8c5be1e5ebec7d5bd14f71427d1e84f3dd0314c0f7b2291e5b200ac8c7c3b92560405160405180910390a45050565b600073ffffffffffffffffffffffffffffffffffffffff168273ffffffffffffffffffffffffffffffffffffffff161415611e8d576040517f08c379a0000000000000000000000000000000000000000000000000000000008152600401611e8490613ec2565b60405180910390fd5b611e9681611cf0565b15611ed6576040517f08c379a0000000000000000000000000000000000000000000000000000000008152600401611ecd90613f2e565b60405180910390fd5b611ee2600083836127b5565b6001600360008473ffffffffffffffffffffffffffffffffffffffff1673ffffffffffffffffffffffffffffffffffffffff1681526020019081526020016000206000828254611f329190613611565b92505081905550816002600083815260200190815260200160002060006101000a81548173ffffffffffffffffffffffffffffffffffffffff021916908373ffffffffffffffffffffffffffffffffffffffff160217905550808273ffffffffffffffffffffffffffffffffffffffff16600073ffffffffffffffffffffffffffffffffffffffff167fddf252ad1be2c89b69c2b068fc378daa952ba7f163c4a11628f55a4df523b3ef60405160405180910390a45050565b6000611ff682611cf0565b612035576040517f08c379a000000000000000000000000000000000000000000000000000000000815260040161202c90613fc0565b60405180910390fd5b6000612040836110fe565b90508073ffffffffffffffffffffffffffffffffffffffff168473ffffffffffffffffffffffffffffffffffffffff1614806120af57508373ffffffffffffffffffffffffffffffffffffffff16612097846108e2565b73ffffffffffffffffffffffffffffffffffffffff16145b806120c057506120bf8185611a53565b5b91505092915050565b8273ffffffffffffffffffffffffffffffffffffffff166120e9826110fe565b73ffffffffffffffffffffffffffffffffffffffff161461213f576040517f08c379a000000000000000000000000000000000000000000000000000000000815260040161213690614052565b60405180910390fd5b600073ffffffffffffffffffffffffffffffffffffffff168273ffffffffffffffffffffffffffffffffffffffff1614156121af576040517f08c379a00000000000000000000000000000000000000000000000000000000081526004016121a6906140e4565b60405180910390fd5b6121ba8383836127b5565b6121c5600082611d64565b6001600360008573ffffffffffffffffffffffffffffffffffffffff1673ffffffffffffffffffffffffffffffffffffffff16815260200190815260200160002060008282546122159190614104565b925050819055506001600360008473ffffffffffffffffffffffffffffffffffffffff1673ffffffffffffffffffffffffffffffffffffffff168152602001908152602001600020600082825461226c9190613611565b92505081905550816002600083815260200190815260200160002060006101000a81548173ffffffffffffffffffffffffffffffffffffffff021916908373ffffffffffffffffffffffffffffffffffffffff160217905550808273ffffffffffffffffffffffffffffffffffffffff168473ffffffffffffffffffffffffffffffffffffffff167fddf252ad1be2c89b69c2b068fc378daa952ba7f163c4a11628f55a4df523b3ef60405160405180910390a4505050565b6001816000016000828254019250508190555050565b6000600a60009054906101000a900473ffffffffffffffffffffffffffffffffffffffff16905081600a60006101000a81548173ffffffffffffffffffffffffffffffffffffffff021916908373ffffffffffffffffffffffffffffffffffffffff1602179055508173ffffffffffffffffffffffffffffffffffffffff168173ffffffffffffffffffffffffffffffffffffffff167f8be0079c531659141344cd1fd0a4f28419497f9722a3daafe3b4186f6b6457e060405160405180910390a35050565b8173ffffffffffffffffffffffffffffffffffffffff168373ffffffffffffffffffffffffffffffffffffffff161415612470576040517f08c379a000000000000000000000000000000000000000000000000000000000815260040161246790614184565b60405180910390fd5b80600560008573ffffffffffffffffffffffffffffffffffffffff1673ffffffffffffffffffffffffffffffffffffffff16815260200190815260200160002060008473ffffffffffffffffffffffffffffffffffffffff1673ffffffffffffffffffffffffffffffffffffffff16815260200190815260200160002060006101000a81548160ff0219169083151502179055508173ffffffffffffffffffffffffffffffffffffffff168373ffffffffffffffffffffffffffffffffffffffff167f17307eab39ab6107e8899845ad3d59bd9653f200f220920489ca2b5937696c31836040516125619190612e23565b60405180910390a3505050565b6125798484846120c9565b612585848484846128c9565b6125c4576040517f08c379a00000000000000000000000000000000000000000000000000000000081526004016125bb90614216565b60405180910390fd5b50505050565b60606040518060600160405280603a81526020016143da603a9139905090565b60606000821415612632576040518060400160405280600181526020017f30000000000000000000000000000000000000000000000000000000000000008152509050612746565b600082905060005b6000821461266457808061264d9061373f565b915050600a8261265d9190614265565b915061263a565b60008167ffffffffffffffff8111156126805761267f613171565b5b6040519080825280601f01601f1916602001820160405280156126b25781602001600182028036833780820191505090505b5090505b6000851461273f576001826126cb9190614104565b9150600a856126da9190614296565b60306126e69190613611565b60f81b8183815181106126fc576126fb613b48565b5b60200101907effffffffffffffffffffffffffffffffffffffffffffffffffffffffffffff1916908160001a905350600a856127389190614265565b94506126b6565b8093505050505b919050565b60007f01ffc9a7000000000000000000000000000000000000000000000000000000007bffffffffffffffffffffffffffffffffffffffffffffffffffffffff1916827bffffffffffffffffffffffffffffffffffffffffffffffffffffffff1916149050919050565b6127c0838383612a51565b600073ffffffffffffffffffffffffffffffffffffffff168373ffffffffffffffffffffffffffffffffffffffff161415612803576127fe81612a56565b612842565b8173ffffffffffffffffffffffffffffffffffffffff168373ffffffffffffffffffffffffffffffffffffffff1614612841576128408382612a9f565b5b5b600073ffffffffffffffffffffffffffffffffffffffff168273ffffffffffffffffffffffffffffffffffffffff1614156128855761288081612c0c565b6128c4565b8273ffffffffffffffffffffffffffffffffffffffff168273ffffffffffffffffffffffffffffffffffffffff16146128c3576128c28282612cdd565b5b5b505050565b60006128ea8473ffffffffffffffffffffffffffffffffffffffff16612d5c565b15612a44578373ffffffffffffffffffffffffffffffffffffffff1663150b7a02612913611d5c565b8786866040518563ffffffff1660e01b8152600401612935949392919061431c565b6020604051808303816000875af192505050801561297157506040513d601f19601f8201168201806040525081019061296e919061437d565b60015b6129f4573d80600081146129a1576040519150601f19603f3d011682016040523d82523d6000602084013e6129a6565b606091505b506000815114156129ec576040517f08c379a00000000000000000000000000000000000000000000000000000000081526004016129e390614216565b60405180910390fd5b805181602001fd5b63150b7a0260e01b7bffffffffffffffffffffffffffffffffffffffffffffffffffffffff1916817bffffffffffffffffffffffffffffffffffffffffffffffffffffffff191614915050612a49565b600190505b949350505050565b505050565b6008805490506009600083815260200190815260200160002081905550600881908060018154018082558091505060019003906000526020600020016000909190919091505550565b60006001612aac84611365565b612ab69190614104565b9050600060076000848152602001908152602001600020549050818114612b9b576000600660008673ffffffffffffffffffffffffffffffffffffffff1673ffffffffffffffffffffffffffffffffffffffff168152602001908152602001600020600084815260200190815260200160002054905080600660008773ffffffffffffffffffffffffffffffffffffffff1673ffffffffffffffffffffffffffffffffffffffff168152602001908152602001600020600084815260200190815260200160002081905550816007600083815260200190815260200160002081905550505b6007600084815260200190815260200160002060009055600660008573ffffffffffffffffffffffffffffffffffffffff1673ffffffffffffffffffffffffffffffffffffffff16815260200190815260200160002060008381526020019081526020016000206000905550505050565b60006001600880549050612c209190614104565b9050600060096000848152602001908152602001600020549050600060088381548110612c5057612c4f613b48565b5b906000526020600020015490508060088381548110612c7257612c71613b48565b5b906000526020600020018190555081600960008381526020019081526020016000208190555060096000858152602001908152602001600020600090556008805480612cc157612cc06143aa565b5b6001900381819060005260206000200160009055905550505050565b6000612ce883611365565b905081600660008573ffffffffffffffffffffffffffffffffffffffff1673ffffffffffffffffffffffffffffffffffffffff168152602001908152602001600020600083815260200190815260200160002081905550806007600084815260200190815260200160002081905550505050565b600080823b905060008111915050919050565b6000604051905090565b600080fd5b600080fd5b60007fffffffff0000000000000000000000000000000000000000000000000000000082169050919050565b612db881612d83565b8114612dc357600080fd5b50565b600081359050612dd581612daf565b92915050565b600060208284031215612df157612df0612d79565b5b6000612dff84828501612dc6565b91505092915050565b60008115159050919050565b612e1d81612e08565b82525050565b6000602082019050612e386000830184612e14565b92915050565b6000819050919050565b612e5181612e3e565b82525050565b6000602082019050612e6c6000830184612e48565b92915050565b600081519050919050565b600082825260208201905092915050565b60005b83811015612eac578082015181840152602081019050612e91565b83811115612ebb576000848401525b50505050565b6000601f19601f8301169050919050565b6000612edd82612e72565b612ee78185612e7d565b9350612ef7818560208601612e8e565b612f0081612ec1565b840191505092915050565b60006020820190508181036000830152612f258184612ed2565b905092915050565b612f3681612e3e565b8114612f4157600080fd5b50565b600081359050612f5381612f2d565b92915050565b600060208284031215612f6f57612f6e612d79565b5b6000612f7d84828501612f44565b91505092915050565b600073ffffffffffffffffffffffffffffffffffffffff82169050919050565b6000612fb182612f86565b9050919050565b612fc181612fa6565b82525050565b6000602082019050612fdc6000830184612fb8565b92915050565b612feb81612fa6565b8114612ff657600080fd5b50565b60008135905061300881612fe2565b92915050565b6000806040838503121561302557613024612d79565b5b600061303385828601612ff9565b925050602061304485828601612f44565b9150509250929050565b60008060006060848603121561306757613066612d79565b5b600061307586828701612ff9565b935050602061308686828701612ff9565b925050604061309786828701612f44565b9150509250925092565b6130aa81612e08565b81146130b557600080fd5b50565b6000813590506130c7816130a1565b92915050565b6000602082840312156130e3576130e2612d79565b5b60006130f1848285016130b8565b91505092915050565b6000602082840312156131105761310f612d79565b5b600061311e84828501612ff9565b91505092915050565b6000806040838503121561313e5761313d612d79565b5b600061314c85828601612ff9565b925050602061315d858286016130b8565b9150509250929050565b600080fd5b600080fd5b7f4e487b7100000000000000000000000000000000000000000000000000000000600052604160045260246000fd5b6131a982612ec1565b810181811067ffffffffffffffff821117156131c8576131c7613171565b5b80604052505050565b60006131db612d6f565b90506131e782826131a0565b919050565b600067ffffffffffffffff82111561320757613206613171565b5b61321082612ec1565b9050602081019050919050565b82818337600083830152505050565b600061323f61323a846131ec565b6131d1565b90508281526020810184848401111561325b5761325a61316c565b5b61326684828561321d565b509392505050565b600082601f83011261328357613282613167565b5b813561329384826020860161322c565b91505092915050565b600080600080608085870312156132b6576132b5612d79565b5b60006132c487828801612ff9565b94505060206132d587828801612ff9565b93505060406132e687828801612f44565b925050606085013567ffffffffffffffff81111561330757613306612d7e565b5b6133138782880161326e565b91505092959194509250565b6000806040838503121561333657613335612d79565b5b600061334485828601612ff9565b925050602061335585828601612ff9565b9150509250929050565b7f4e487b7100000000000000000000000000000000000000000000000000000000600052602260045260246000fd5b600060028204905060018216806133a657607f821691505b602082108114156133ba576133b961335f565b5b50919050565b7f4552433732313a20617070726f76656420717565727920666f72206e6f6e657860008201527f697374656e7420746f6b656e0000000000000000000000000000000000000000602082015250565b600061341c602c83612e7d565b9150613427826133c0565b604082019050919050565b6000602082019050818103600083015261344b8161340f565b9050919050565b7f4552433732313a20617070726f76616c20746f2063757272656e74206f776e6560008201527f7200000000000000000000000000000000000000000000000000000000000000602082015250565b60006134ae602183612e7d565b91506134b982613452565b604082019050919050565b600060208201905081810360008301526134dd816134a1565b9050919050565b7f4552433732313a20617070726f76652063616c6c6572206973206e6f74206f7760008201527f6e6572206e6f7220617070726f76656420666f7220616c6c0000000000000000602082015250565b6000613540603883612e7d565b915061354b826134e4565b604082019050919050565b6000602082019050818103600083015261356f81613533565b9050919050565b7f4f776e61626c653a2063616c6c6572206973206e6f7420746865206f776e6572600082015250565b60006135ac602083612e7d565b91506135b782613576565b602082019050919050565b600060208201905081810360008301526135db8161359f565b9050919050565b7f4e487b7100000000000000000000000000000000000000000000000000000000600052601160045260246000fd5b600061361c82612e3e565b915061362783612e3e565b9250827fffffffffffffffffffffffffffffffffffffffffffffffffffffffffffffffff0382111561365c5761365b6135e2565b5b828201905092915050565b7f45786365656473206d6178696d756d20737570706c7900000000000000000000600082015250565b600061369d601683612e7d565b91506136a882613667565b602082019050919050565b600060208201905081810360008301526136cc81613690565b9050919050565b7f596f7520617265206e6f7420746865206f776e65720000000000000000000000600082015250565b6000613709601583612e7d565b9150613714826136d3565b602082019050919050565b60006020820190508181036000830152613738816136fc565b9050919050565b600061374a82612e3e565b91507fffffffffffffffffffffffffffffffffffffffffffffffffffffffffffffffff82141561377d5761377c6135e2565b5b600182019050919050565b7f4552433732313a207472616e736665722063616c6c6572206973206e6f74206f60008201527f776e6572206e6f7220617070726f766564000000000000000000000000000000602082015250565b60006137e4603183612e7d565b91506137ef82613788565b604082019050919050565b60006020820190508181036000830152613813816137d7565b9050919050565b7f436f6e747261637420636c6f7365642100000000000000000000000000000000600082015250565b6000613850601083612e7d565b915061385b8261381a565b602082019050919050565b6000602082019050818103600083015261387f81613843565b9050919050565b7f6261746368206c696d6974206973203230000000000000000000000000000000600082015250565b60006138bc601183612e7d565b91506138c782613886565b602082019050919050565b600060208201905081810360008301526138eb816138af565b9050919050565b7f4d696e74206c696d697420726561636865640000000000000000000000000000600082015250565b6000613928601283612e7d565b9150613933826138f2565b602082019050919050565b600060208201905081810360008301526139578161391b565b9050919050565b600061396982612e3e565b915061397483612e3e565b9250817fffffffffffffffffffffffffffffffffffffffffffffffffffffffffffffffff04831182151516156139ad576139ac6135e2565b5b828202905092915050565b7f4e6f7420656e6f75676820657468657200000000000000000000000000000000600082015250565b60006139ee601083612e7d565b91506139f9826139b8565b602082019050919050565b60006020820190508181036000830152613a1d816139e1565b9050919050565b7f455243373231456e756d657261626c653a206f776e657220696e646578206f7560008201527f74206f6620626f756e6473000000000000000000000000000000000000000000602082015250565b6000613a80602b83612e7d565b9150613a8b82613a24565b604082019050919050565b60006020820190508181036000830152613aaf81613a73565b9050919050565b7f455243373231456e756d657261626c653a20676c6f62616c20696e646578206f60008201527f7574206f6620626f756e64730000000000000000000000000000000000000000602082015250565b6000613b12602c83612e7d565b9150613b1d82613ab6565b604082019050919050565b60006020820190508181036000830152613b4181613b05565b9050919050565b7f4e487b7100000000000000000000000000000000000000000000000000000000600052603260045260246000fd5b7f4552433732313a206f776e657220717565727920666f72206e6f6e657869737460008201527f656e7420746f6b656e0000000000000000000000000000000000000000000000602082015250565b6000613bd3602983612e7d565b9150613bde82613b77565b604082019050919050565b60006020820190508181036000830152613c0281613bc6565b9050919050565b7f4552433732313a2062616c616e636520717565727920666f7220746865207a6560008201527f726f206164647265737300000000000000000000000000000000000000000000602082015250565b6000613c65602a83612e7d565b9150613c7082613c09565b604082019050919050565b60006020820190508181036000830152613c9481613c58565b9050919050565b7f4552433732314d657461646174613a2055524920717565727920666f72206e6f60008201527f6e6578697374656e7420746f6b656e0000000000000000000000000000000000602082015250565b6000613cf7602f83612e7d565b9150613d0282613c9b565b604082019050919050565b60006020820190508181036000830152613d2681613cea565b9050919050565b600081905092915050565b6000613d4382612e72565b613d4d8185613d2d565b9350613d5d818560208601612e8e565b80840191505092915050565b7f2e6a736f6e000000000000000000000000000000000000000000000000000000600082015250565b6000613d9f600583613d2d565b9150613daa82613d69565b600582019050919050565b6000613dc18285613d38565b9150613dcd8284613d38565b9150613dd882613d92565b91508190509392505050565b7f4f776e61626c653a206e6577206f776e657220697320746865207a65726f206160008201527f6464726573730000000000000000000000000000000000000000000000000000602082015250565b6000613e40602683612e7d565b9150613e4b82613de4565b604082019050919050565b60006020820190508181036000830152613e6f81613e33565b9050919050565b7f4552433732313a206d696e7420746f20746865207a65726f2061646472657373600082015250565b6000613eac602083612e7d565b9150613eb782613e76565b602082019050919050565b60006020820190508181036000830152613edb81613e9f565b9050919050565b7f4552433732313a20746f6b656e20616c7265616479206d696e74656400000000600082015250565b6000613f18601c83612e7d565b9150613f2382613ee2565b602082019050919050565b60006020820190508181036000830152613f4781613f0b565b9050919050565b7f4552433732313a206f70657261746f7220717565727920666f72206e6f6e657860008201527f697374656e7420746f6b656e0000000000000000000000000000000000000000602082015250565b6000613faa602c83612e7d565b9150613fb582613f4e565b604082019050919050565b60006020820190508181036000830152613fd981613f9d565b9050919050565b7f4552433732313a207472616e73666572206f6620746f6b656e2074686174206960008201527f73206e6f74206f776e0000000000000000000000000000000000000000000000602082015250565b600061403c602983612e7d565b915061404782613fe0565b604082019050919050565b6000602082019050818103600083015261406b8161402f565b9050919050565b7f4552433732313a207472616e7366657220746f20746865207a65726f2061646460008201527f7265737300000000000000000000000000000000000000000000000000000000602082015250565b60006140ce602483612e7d565b91506140d982614072565b604082019050919050565b600060208201905081810360008301526140fd816140c1565b9050919050565b600061410f82612e3e565b915061411a83612e3e565b92508282101561412d5761412c6135e2565b5b828203905092915050565b7f4552433732313a20617070726f766520746f2063616c6c657200000000000000600082015250565b600061416e601983612e7d565b915061417982614138565b602082019050919050565b6000602082019050818103600083015261419d81614161565b9050919050565b7f4552433732313a207472616e7366657220746f206e6f6e20455243373231526560008201527f63656976657220696d706c656d656e7465720000000000000000000000000000602082015250565b6000614200603283612e7d565b915061420b826141a4565b604082019050919050565b6000602082019050818103600083015261422f816141f3565b9050919050565b7f4e487b7100000000000000000000000000000000000000000000000000000000600052601260045260246000fd5b600061427082612e3e565b915061427b83612e3e565b92508261428b5761428a614236565b5b828204905092915050565b60006142a182612e3e565b91506142ac83612e3e565b9250826142bc576142bb614236565b5b828206905092915050565b600081519050919050565b600082825260208201905092915050565b60006142ee826142c7565b6142f881856142d2565b9350614308818560208601612e8e565b61431181612ec1565b840191505092915050565b60006080820190506143316000830187612fb8565b61433e6020830186612fb8565b61434b6040830185612e48565b818103606083015261435d81846142e3565b905095945050505050565b60008151905061437781612daf565b92915050565b60006020828403121561439357614392612d79565b5b60006143a184828501614368565b91505092915050565b7f4e487b7100000000000000000000000000000000000000000000000000000000600052603160045260246000fdfe68747470733a2f2f73746f726167656170692e666c65656b2e636f2f6a616c6170696e612d7465616d2d6275636b65742f6d657461646174612fa264697066735822122063d88f955163d89da97db81b088922c702e77e4427f42c7ffc1676c5c60989bf64736f6c634300080a0033",
  "immutableReferences": {},
  "source": "//SPDX-License-Identifier: MIT\npragma solidity ^0.8.0;\nimport \"@openzeppelin/contracts/token/ERC721/ERC721.sol\";\nimport \"@openzeppelin/contracts/token/ERC721/extensions/ERC721Enumerable.sol\";\nimport \"@openzeppelin/contracts/access/Ownable.sol\";\nimport \"@openzeppelin/contracts/utils/math/SafeMath.sol\";\nimport \"@openzeppelin/contracts/utils/Counters.sol\";\n\ncontract CryptoConchasRinkeby is ERC721Enumerable, Ownable {\n    \n    using SafeMath for uint256;\n    using Counters for Counters.Counter;\n    Counters.Counter private _tokenIdTracker;\n    \n    uint256 public constant MAX_MINT_SUPPLY = 10000;\n    address public constant addressOne = 0x55541B808Cd0d89e4bDdfAbc00a7F53b698f4BaF;\n    uint256 public _price = 0;\n    uint256 public MINT_LIMIT = 100;\n    bool public isPaused = false;\n\n    constructor() ERC721(\"CryptoConchasRinkeby\", \"CCR\") {\n    }\n\n    function mint(address _to) public payable {\n        \n      uint256 supply = totalSupply();\n      require(getIsPaused() == false,\"Contract closed!\");\n      require(supply + 1 <  MINT_LIMIT, \"Mint limit reached\");\n      require(supply + 1 <  MAX_MINT_SUPPLY, \"Exceeds maximum supply\");\n      require(msg.value >= _price, \"Not enough ether\");\n\n      super._mint(_to, supply + 1);\n\n      require(payable(addressOne).send(msg.value));\n\n      _tokenIdTracker.increment();\n\n    }\n\n    function getIsPaused() public view returns (bool) { \n      return isPaused;\n    }\n\n    function getPrice() public view returns (uint256) {\n      require(msg.sender == owner(), \"You are not the owner\");        \n      return _price;\n    }\n\n    function getMintLimit() public view returns (uint256) {\n      require(msg.sender == owner(), \"You are not the owner\");        \n      return MINT_LIMIT;\n    }\n\n    function setMintLimit(uint256 _MINT_LIMIT) public onlyOwner{\n      require(msg.sender == owner(), \"You are not the owner\");\n      MINT_LIMIT = _MINT_LIMIT;\n    }\n\n    function setIsPaused(bool _paused) public onlyOwner{\n      require(msg.sender == owner(), \"You are not the owner\");\n      isPaused = _paused;\n    }\n\n    function setPrice(uint256 price) public onlyOwner{\n      require(msg.sender == owner(), \"You are not the owner\");\n      _price = price;\n    }\n\n    function initialMintBatch(address _to, uint256 _count) public payable onlyOwner{\n      uint256 supply = totalSupply();       \n      require(supply + _count <  MAX_MINT_SUPPLY, \"Exceeds maximum supply\");        \n      require(msg.sender == owner(), \"You are not the owner\");\n      \n      for (uint256 i = 0; i < _count; i++){\n          _mint(_to,supply + i);\n      }\n    }\n    \n    function mintBatch(address _to, uint256 _count) public payable {\n      uint256 supply = totalSupply();\n      require(getIsPaused() == false,\"Contract closed!\");\n      require(_count <  21 , \"batch limit is 20\");\n      require(supply + _count <  MINT_LIMIT, \"Mint limit reached\");\n      require(supply + _count <  MAX_MINT_SUPPLY, \"Exceeds maximum supply\");\n      require(msg.value >= _price * _count, \"Not enough ether\");\n\n      for (uint256 i = 0; i < _count; i++) {\n        _mint(_to,supply + i);\n      }\n    }\n\n    function withdrawAll() public payable onlyOwner {\n      require(msg.sender == owner(), \"You are not the owner\");\n      require(payable(addressOne).send(address(this).balance));\n    }\n    \n    function _baseURI() internal view virtual override returns (string memory) {\n      return \"https://storageapi.fleek.co/jalapina-team-bucket/metadata/\";\n    }\n}\n",
  "sourcePath": "/Users/jalapina/Desktop/projects/blockchain/crypto-conchas/backend/contracts/CryptoConchas.sol",
  "compiler": {
    "name": "solc",
    "version": "0.8.10+commit.fc410830.Emscripten.clang"
  },
  "schemaVersion": "3.4.3",
  "updatedAt": "2021-12-09T01:53:38.503Z",
  "networkType": "ethereum",
  "devdoc": {
    "kind": "dev",
    "methods": {
      "approve(address,uint256)": {
        "details": "See {IERC721-approve}."
      },
      "balanceOf(address)": {
        "details": "See {IERC721-balanceOf}."
      },
      "getApproved(uint256)": {
        "details": "See {IERC721-getApproved}."
      },
      "isApprovedForAll(address,address)": {
        "details": "See {IERC721-isApprovedForAll}."
      },
      "name()": {
        "details": "See {IERC721Metadata-name}."
      },
      "owner()": {
        "details": "Returns the address of the current owner."
      },
      "ownerOf(uint256)": {
        "details": "See {IERC721-ownerOf}."
      },
      "renounceOwnership()": {
        "details": "Leaves the contract without owner. It will not be possible to call `onlyOwner` functions anymore. Can only be called by the current owner. NOTE: Renouncing ownership will leave the contract without an owner, thereby removing any functionality that is only available to the owner."
      },
      "safeTransferFrom(address,address,uint256)": {
        "details": "See {IERC721-safeTransferFrom}."
      },
      "safeTransferFrom(address,address,uint256,bytes)": {
        "details": "See {IERC721-safeTransferFrom}."
      },
      "setApprovalForAll(address,bool)": {
        "details": "See {IERC721-setApprovalForAll}."
      },
      "supportsInterface(bytes4)": {
        "details": "See {IERC165-supportsInterface}."
      },
      "symbol()": {
        "details": "See {IERC721Metadata-symbol}."
      },
      "tokenByIndex(uint256)": {
        "details": "See {IERC721Enumerable-tokenByIndex}."
      },
      "tokenOfOwnerByIndex(address,uint256)": {
        "details": "See {IERC721Enumerable-tokenOfOwnerByIndex}."
      },
      "tokenURI(uint256)": {
        "details": "See {IERC721Metadata-tokenURI}."
      },
      "totalSupply()": {
        "details": "See {IERC721Enumerable-totalSupply}."
      },
      "transferFrom(address,address,uint256)": {
        "details": "See {IERC721-transferFrom}."
      },
      "transferOwnership(address)": {
        "details": "Transfers ownership of the contract to a new account (`newOwner`). Can only be called by the current owner."
      }
    },
    "version": 1
  },
  "userdoc": {
    "kind": "user",
    "methods": {},
    "version": 1
  }
}